{
  "contractName": "Votingcon",
  "abi": [
    {
      "inputs": [],
      "stateMutability": "nonpayable",
      "type": "constructor"
    },
    {
      "inputs": [],
      "name": "Organizer_name",
      "outputs": [
        {
          "internalType": "string",
          "name": "",
          "type": "string"
        }
      ],
      "stateMutability": "view",
      "type": "function",
      "constant": true
    },
    {
      "inputs": [],
      "name": "state",
      "outputs": [
        {
          "internalType": "enum Votingcon.State",
          "name": "",
          "type": "uint8"
        }
      ],
      "stateMutability": "view",
      "type": "function",
      "constant": true
    },
    {
      "inputs": [],
      "name": "totalVoters",
      "outputs": [
        {
          "internalType": "uint256",
          "name": "",
          "type": "uint256"
        }
      ],
      "stateMutability": "view",
      "type": "function",
      "constant": true
    },
    {
      "inputs": [],
      "name": "start_voting",
      "outputs": [],
      "stateMutability": "nonpayable",
      "type": "function"
    },
    {
      "inputs": [],
      "name": "get_status",
      "outputs": [
        {
          "internalType": "enum Votingcon.State",
          "name": "",
          "type": "uint8"
        }
      ],
      "stateMutability": "view",
      "type": "function",
      "constant": true
    },
    {
      "inputs": [],
      "name": "end_voting",
      "outputs": [],
      "stateMutability": "nonpayable",
      "type": "function"
    },
    {
      "inputs": [
        {
          "internalType": "string",
          "name": "name",
          "type": "string"
        }
      ],
      "name": "addCandidates",
      "outputs": [],
      "stateMutability": "nonpayable",
      "type": "function"
    },
    {
      "inputs": [],
      "name": "get_candidates_list",
      "outputs": [
        {
          "internalType": "string[]",
          "name": "",
          "type": "string[]"
        }
      ],
      "stateMutability": "view",
      "type": "function",
      "constant": true
    },
    {
      "inputs": [
        {
          "internalType": "string",
          "name": "name",
          "type": "string"
        }
      ],
      "name": "register_voter",
      "outputs": [],
      "stateMutability": "nonpayable",
      "type": "function"
    },
    {
      "inputs": [
        {
          "internalType": "uint256",
          "name": "c",
          "type": "uint256"
        }
      ],
      "name": "do_vote",
      "outputs": [],
      "stateMutability": "nonpayable",
      "type": "function"
    },
    {
      "inputs": [],
      "name": "get_Result",
      "outputs": [
        {
          "internalType": "uint256",
          "name": "",
          "type": "uint256"
        },
        {
          "internalType": "string",
          "name": "",
          "type": "string"
        }
      ],
      "stateMutability": "view",
      "type": "function",
      "constant": true
    }
  ],
  "bytecode": "0x608060405260006002556000600455600060055560006006553480156200002557600080fd5b5060006040518060400160405280600481526020017f75646179000000000000000000000000000000000000000000000000000000008152509050600081905060005b8151811015620001b25760008282815181106200008a57620000896200023c565b5b602001015160f81c60f81b9050604160f81b817effffffffffffffffffffffffffffffffffffffffffffffffffffffffffffff191610158015620000f45750605a60f81b817effffffffffffffffffffffffffffffffffffffffffffffffffffffffffffff191611155b80620001595750606160f81b817effffffffffffffffffffffffffffffffffffffffffffffffffffffffffffff191610158015620001585750607a60f81b817effffffffffffffffffffffffffffffffffffffffffffffffffffffffffffff191611155b5b6200019b576040517f08c379a00000000000000000000000000000000000000000000000000000000081526004016200019290620002cc565b60405180910390fd5b508080620001a99062000327565b91505062000068565b5033600760006101000a81548173ffffffffffffffffffffffffffffffffffffffff021916908373ffffffffffffffffffffffffffffffffffffffff1602179055508160089081620002059190620005e4565b506000600a60006101000a81548160ff021916908360028111156200022f576200022e620006cb565b5b02179055505050620006fa565b7f4e487b7100000000000000000000000000000000000000000000000000000000600052603260045260246000fd5b600082825260208201905092915050565b7f656e7465722076616c6964206e616d6500000000000000000000000000000000600082015250565b6000620002b46010836200026b565b9150620002c1826200027c565b602082019050919050565b60006020820190508181036000830152620002e781620002a5565b9050919050565b7f4e487b7100000000000000000000000000000000000000000000000000000000600052601160045260246000fd5b6000819050919050565b600062000334826200031d565b91507fffffffffffffffffffffffffffffffffffffffffffffffffffffffffffffffff8203620003695762000368620002ee565b5b600182019050919050565b600081519050919050565b7f4e487b7100000000000000000000000000000000000000000000000000000000600052604160045260246000fd5b7f4e487b7100000000000000000000000000000000000000000000000000000000600052602260045260246000fd5b60006002820490506001821680620003f657607f821691505b6020821081036200040c576200040b620003ae565b5b50919050565b60008190508160005260206000209050919050565b60006020601f8301049050919050565b600082821b905092915050565b600060088302620004767fffffffffffffffffffffffffffffffffffffffffffffffffffffffffffffffff8262000437565b62000482868362000437565b95508019841693508086168417925050509392505050565b6000819050919050565b6000620004c5620004bf620004b9846200031d565b6200049a565b6200031d565b9050919050565b6000819050919050565b620004e183620004a4565b620004f9620004f082620004cc565b84845462000444565b825550505050565b600090565b6200051062000501565b6200051d818484620004d6565b505050565b5b8181101562000545576200053960008262000506565b60018101905062000523565b5050565b601f82111562000594576200055e8162000412565b620005698462000427565b8101602085101562000579578190505b62000591620005888562000427565b83018262000522565b50505b505050565b600082821c905092915050565b6000620005b96000198460080262000599565b1980831691505092915050565b6000620005d48383620005a6565b9150826002028217905092915050565b620005ef8262000374565b67ffffffffffffffff8111156200060b576200060a6200037f565b5b620006178254620003dd565b6200062482828562000549565b600060209050601f8311600181146200065c576000841562000647578287015190505b620006538582620005c6565b865550620006c3565b601f1984166200066c8662000412565b60005b8281101562000696578489015182556001820191506020850194506020810190506200066f565b86831015620006b65784890151620006b2601f891682620005a6565b8355505b6001600288020188555050505b505050505050565b7f4e487b7100000000000000000000000000000000000000000000000000000000600052602160045260246000fd5b611d58806200070a6000396000f3fe608060405234801561001057600080fd5b50600436106100a95760003560e01c806362604e961161007157806362604e961461012e578063721b579a1461014a57806390bc7b3714610168578063b24aa34e14610184578063c19d93fb1461018e578063c5dec09e146101ac576100a9565b8063100249f9146100ae57806319bfd361146100ca57806339aaba25146100e85780635f5300ff14610106578063615a72cf14610124575b600080fd5b6100c860048036038101906100c39190610fa2565b6101cb565b005b6100d261042a565b6040516100df919061105f565b60405180910390f35b6100f06104b8565b6040516100fd91906110f8565b60405180910390f35b61010e61055f565b60405161011b9190611122565b60405180910390f35b61012c610565565b005b61014860048036038101906101439190611272565b6106a6565b005b6101526109a3565b60405161015f91906113c7565b60405180910390f35b610182600480360381019061017d9190611272565b610ac1565b005b61018c610d52565b005b610196610e0f565b6040516101a391906110f8565b60405180910390f35b6101b4610e22565b6040516101c29291906113e9565b60405180910390f35b600160028111156101df576101de611081565b5b600a60009054906101000a900460ff16600281111561020157610200611081565b5b14610241576040517f08c379a000000000000000000000000000000000000000000000000000000000815260040161023890611465565b60405180910390fd5b60025481111561025057600080fd5b6000600960003373ffffffffffffffffffffffffffffffffffffffff1673ffffffffffffffffffffffffffffffffffffffff168152602001908152602001600020600301805461029f906114b4565b905014158015610302575060001515600960003373ffffffffffffffffffffffffffffffffffffffff1673ffffffffffffffffffffffffffffffffffffffff16815260200190815260200160002060020160009054906101000a900460ff161515145b610341576040517f08c379a000000000000000000000000000000000000000000000000000000000815260040161033890611531565b60405180910390fd5b6001600960003373ffffffffffffffffffffffffffffffffffffffff1673ffffffffffffffffffffffffffffffffffffffff16815260200190815260200160002060020160006101000a81548160ff02191690831515021790555080600960003373ffffffffffffffffffffffffffffffffffffffff1673ffffffffffffffffffffffffffffffffffffffff1681526020019081526020016000206001018190555060016000828152602001908152602001600020600101600081548092919061040a90611580565b91905055506006600081548092919061042290611580565b919050555050565b60088054610437906114b4565b80601f0160208091040260200160405190810160405280929190818152602001828054610463906114b4565b80156104b05780601f10610485576101008083540402835291602001916104b0565b820191906000526020600020905b81548152906001019060200180831161049357829003601f168201915b505050505081565b6000600760009054906101000a900473ffffffffffffffffffffffffffffffffffffffff1673ffffffffffffffffffffffffffffffffffffffff163373ffffffffffffffffffffffffffffffffffffffff161461054a576040517f08c379a00000000000000000000000000000000000000000000000000000000081526004016105419061163a565b60405180910390fd5b600a60009054906101000a900460ff16905090565b60055481565b600760009054906101000a900473ffffffffffffffffffffffffffffffffffffffff1673ffffffffffffffffffffffffffffffffffffffff163373ffffffffffffffffffffffffffffffffffffffff16146105f5576040517f08c379a00000000000000000000000000000000000000000000000000000000081526004016105ec906116cc565b60405180910390fd5b6002600a60006101000a81548160ff0219169083600281111561061b5761061a611081565b5b021790555060005b6002548110156106a35760045460016000838152602001908152602001600020600101541115610690576001600082815260200190815260200160002060010154600481905550600160008281526020019081526020016000206000016003908161068e91906118c3565b505b808061069b90611580565b915050610623565b50565b600160028111156106ba576106b9611081565b5b600a60009054906101000a900460ff1660028111156106dc576106db611081565b5b1415801561071d57506002808111156106f8576106f7611081565b5b600a60009054906101000a900460ff16600281111561071a57610719611081565b5b14155b61072657600080fd5b600760009054906101000a900473ffffffffffffffffffffffffffffffffffffffff1673ffffffffffffffffffffffffffffffffffffffff163373ffffffffffffffffffffffffffffffffffffffff16146107b6576040517f08c379a00000000000000000000000000000000000000000000000000000000081526004016107ad90611a1d565b60405180910390fd5b600081905060005b81518110156108fb5760008282815181106107dc576107db611a3d565b5b602001015160f81c60f81b9050604160f81b817effffffffffffffffffffffffffffffffffffffffffffffffffffffffffffff1916101580156108455750605a60f81b817effffffffffffffffffffffffffffffffffffffffffffffffffffffffffffff191611155b806108a85750606160f81b817effffffffffffffffffffffffffffffffffffffffffffffffffffffffffffff1916101580156108a75750607a60f81b817effffffffffffffffffffffffffffffffffffffffffffffffffffffffffffff191611155b5b6108e7576040517f08c379a00000000000000000000000000000000000000000000000000000000081526004016108de90611ab8565b60405180910390fd5b5080806108f390611580565b9150506107be565b50610904610efe565b8281600001819052506000839080600181540180825580915050600190039060005260206000200160009091909190915090816109419190611ad8565b5060008160200181815250508060016000600254815260200190815260200160002060008201518160000190816109789190611ad8565b50602082015181600101559050506002600081548092919061099990611580565b9190505550505050565b60606000600254116109ea576040517f08c379a00000000000000000000000000000000000000000000000000000000081526004016109e190611bf6565b60405180910390fd5b6000805480602002602001604051908101604052809291908181526020016000905b82821015610ab8578382906000526020600020018054610a2b906114b4565b80601f0160208091040260200160405190810160405280929190818152602001828054610a57906114b4565b8015610aa45780601f10610a7957610100808354040283529160200191610aa4565b820191906000526020600020905b815481529060010190602001808311610a8757829003601f168201915b505050505081526020019060010190610a0c565b50505050905090565b600280811115610ad457610ad3611081565b5b600a60009054906101000a900460ff166002811115610af657610af5611081565b5b03610b36576040517f08c379a0000000000000000000000000000000000000000000000000000000008152600401610b2d90611c62565b60405180910390fd5b3373ffffffffffffffffffffffffffffffffffffffff16600960003373ffffffffffffffffffffffffffffffffffffffff1673ffffffffffffffffffffffffffffffffffffffff16815260200190815260200160002060000160009054906101000a900473ffffffffffffffffffffffffffffffffffffffff1673ffffffffffffffffffffffffffffffffffffffff1603610c06576040517f08c379a0000000000000000000000000000000000000000000000000000000008152600401610bfd90611cce565b60405180910390fd5b610c0e610f18565b33816000019073ffffffffffffffffffffffffffffffffffffffff16908173ffffffffffffffffffffffffffffffffffffffff1681525050818160600181905250600081604001901515908115158152505060008160200181815250508060096000836000015173ffffffffffffffffffffffffffffffffffffffff1673ffffffffffffffffffffffffffffffffffffffff16815260200190815260200160002060008201518160000160006101000a81548173ffffffffffffffffffffffffffffffffffffffff021916908373ffffffffffffffffffffffffffffffffffffffff1602179055506020820151816001015560408201518160020160006101000a81548160ff0219169083151502179055506060820151816003019081610d359190611ad8565b509050506001600554610d489190611cee565b6005819055505050565b600760009054906101000a900473ffffffffffffffffffffffffffffffffffffffff1673ffffffffffffffffffffffffffffffffffffffff163373ffffffffffffffffffffffffffffffffffffffff1614610de2576040517f08c379a0000000000000000000000000000000000000000000000000000000008152600401610dd99061163a565b60405180910390fd5b6001600a60006101000a81548160ff02191690836002811115610e0857610e07611081565b5b0217905550565b600a60009054906101000a900460ff1681565b60006060600280811115610e3957610e38611081565b5b600a60009054906101000a900460ff166002811115610e5b57610e5a611081565b5b14610e6557600080fd5b6004546003808054610e76906114b4565b80601f0160208091040260200160405190810160405280929190818152602001828054610ea2906114b4565b8015610eef5780601f10610ec457610100808354040283529160200191610eef565b820191906000526020600020905b815481529060010190602001808311610ed257829003601f168201915b50505050509050915091509091565b604051806040016040528060608152602001600081525090565b6040518060800160405280600073ffffffffffffffffffffffffffffffffffffffff16815260200160008152602001600015158152602001606081525090565b6000604051905090565b600080fd5b600080fd5b6000819050919050565b610f7f81610f6c565b8114610f8a57600080fd5b50565b600081359050610f9c81610f76565b92915050565b600060208284031215610fb857610fb7610f62565b5b6000610fc684828501610f8d565b91505092915050565b600081519050919050565b600082825260208201905092915050565b60005b83811015611009578082015181840152602081019050610fee565b60008484015250505050565b6000601f19601f8301169050919050565b600061103182610fcf565b61103b8185610fda565b935061104b818560208601610feb565b61105481611015565b840191505092915050565b600060208201905081810360008301526110798184611026565b905092915050565b7f4e487b7100000000000000000000000000000000000000000000000000000000600052602160045260246000fd5b600381106110c1576110c0611081565b5b50565b60008190506110d2826110b0565b919050565b60006110e2826110c4565b9050919050565b6110f2816110d7565b82525050565b600060208201905061110d60008301846110e9565b92915050565b61111c81610f6c565b82525050565b60006020820190506111376000830184611113565b92915050565b600080fd5b600080fd5b7f4e487b7100000000000000000000000000000000000000000000000000000000600052604160045260246000fd5b61117f82611015565b810181811067ffffffffffffffff8211171561119e5761119d611147565b5b80604052505050565b60006111b1610f58565b90506111bd8282611176565b919050565b600067ffffffffffffffff8211156111dd576111dc611147565b5b6111e682611015565b9050602081019050919050565b82818337600083830152505050565b6000611215611210846111c2565b6111a7565b90508281526020810184848401111561123157611230611142565b5b61123c8482856111f3565b509392505050565b600082601f8301126112595761125861113d565b5b8135611269848260208601611202565b91505092915050565b60006020828403121561128857611287610f62565b5b600082013567ffffffffffffffff8111156112a6576112a5610f67565b5b6112b284828501611244565b91505092915050565b600081519050919050565b600082825260208201905092915050565b6000819050602082019050919050565b600082825260208201905092915050565b600061130382610fcf565b61130d81856112e7565b935061131d818560208601610feb565b61132681611015565b840191505092915050565b600061133d83836112f8565b905092915050565b6000602082019050919050565b600061135d826112bb565b61136781856112c6565b935083602082028501611379856112d7565b8060005b858110156113b557848403895281516113968582611331565b94506113a183611345565b925060208a0199505060018101905061137d565b50829750879550505050505092915050565b600060208201905081810360008301526113e18184611352565b905092915050565b60006040820190506113fe6000830185611113565b81810360208301526114108184611026565b90509392505050565b7f566f74696e6720686173206e6f74207374617274656400000000000000000000600082015250565b600061144f601683610fda565b915061145a82611419565b602082019050919050565b6000602082019050818103600083015261147e81611442565b9050919050565b7f4e487b7100000000000000000000000000000000000000000000000000000000600052602260045260246000fd5b600060028204905060018216806114cc57607f821691505b6020821081036114df576114de611485565b5b50919050565b7f796f75206861766520616c726561647920766f74656400000000000000000000600082015250565b600061151b601683610fda565b9150611526826114e5565b602082019050919050565b6000602082019050818103600083015261154a8161150e565b9050919050565b7f4e487b7100000000000000000000000000000000000000000000000000000000600052601160045260246000fd5b600061158b82610f6c565b91507fffffffffffffffffffffffffffffffffffffffffffffffffffffffffffffffff82036115bd576115bc611551565b5b600182019050919050565b7f4f6e6c79206f7267616e697a65722063616e2073746172742074686520766f7460008201527f696e670000000000000000000000000000000000000000000000000000000000602082015250565b6000611624602383610fda565b915061162f826115c8565b604082019050919050565b6000602082019050818103600083015261165381611617565b9050919050565b7f4f6e6c79206f7267616e697a65722063616e20656e642074686520766f74696e60008201527f6700000000000000000000000000000000000000000000000000000000000000602082015250565b60006116b6602183610fda565b91506116c18261165a565b604082019050919050565b600060208201905081810360008301526116e5816116a9565b9050919050565b6000815490506116fb816114b4565b9050919050565b60008190508160005260206000209050919050565b60008190508160005260206000209050919050565b60006020601f8301049050919050565b600082821b905092915050565b6000600883026117797fffffffffffffffffffffffffffffffffffffffffffffffffffffffffffffffff8261173c565b611783868361173c565b95508019841693508086168417925050509392505050565b6000819050919050565b60006117c06117bb6117b684610f6c565b61179b565b610f6c565b9050919050565b6000819050919050565b6117da836117a5565b6117ee6117e6826117c7565b848454611749565b825550505050565b600090565b6118036117f6565b61180e8184846117d1565b505050565b5b81811015611832576118276000826117fb565b600181019050611814565b5050565b601f8211156118775761184881611702565b6118518461172c565b81016020851015611860578190505b61187461186c8561172c565b830182611813565b50505b505050565b600082821c905092915050565b600061189a6000198460080261187c565b1980831691505092915050565b60006118b38383611889565b9150826002028217905092915050565b8181036118d15750506119a9565b6118da826116ec565b67ffffffffffffffff8111156118f3576118f2611147565b5b6118fd82546114b4565b611908828285611836565b6000601f8311600181146119375760008415611925578287015490505b61192f85826118a7565b8655506119a2565b601f19841661194587611717565b965061195086611702565b60005b8281101561197857848901548255600182019150600185019450602081019050611953565b868310156119955784890154611991601f891682611889565b8355505b6001600288020188555050505b5050505050505b565b7f6f6e6c79206f7267616e697a65722063616e20616464207468652063616e646960008201527f6461746573000000000000000000000000000000000000000000000000000000602082015250565b6000611a07602583610fda565b9150611a12826119ab565b604082019050919050565b60006020820190508181036000830152611a36816119fa565b9050919050565b7f4e487b7100000000000000000000000000000000000000000000000000000000600052603260045260246000fd5b7f656e7465722076616c69642063616e646964617465206e616d65000000000000600082015250565b6000611aa2601a83610fda565b9150611aad82611a6c565b602082019050919050565b60006020820190508181036000830152611ad181611a95565b9050919050565b611ae182610fcf565b67ffffffffffffffff811115611afa57611af9611147565b5b611b0482546114b4565b611b0f828285611836565b600060209050601f831160018114611b425760008415611b30578287015190505b611b3a85826118a7565b865550611ba2565b601f198416611b5086611702565b60005b82811015611b7857848901518255600182019150602085019450602081019050611b53565b86831015611b955784890151611b91601f891682611889565b8355505b6001600288020188555050505b505050505050565b7f74686520617265206e6f2063616e646964617465730000000000000000000000600082015250565b6000611be0601583610fda565b9150611beb82611baa565b602082019050919050565b60006020820190508181036000830152611c0f81611bd3565b9050919050565b7f766f74696e672070726f636573732068617320456e6465640000000000000000600082015250565b6000611c4c601883610fda565b9150611c5782611c16565b602082019050919050565b60006020820190508181036000830152611c7b81611c3f565b9050919050565b7f616c726561647920726567697374657265640000000000000000000000000000600082015250565b6000611cb8601283610fda565b9150611cc382611c82565b602082019050919050565b60006020820190508181036000830152611ce781611cab565b9050919050565b6000611cf982610f6c565b9150611d0483610f6c565b9250828201905080821115611d1c57611d1b611551565b5b9291505056fea264697066735822122053fdcef0fe191c3e3be9a5d69a4dff54fa53a769c4a098c4599270d6e566e5e964736f6c63430008110033",
  "immutableReferences": {},
  "source": "// SPDX-License-Identifier: MIT\npragma solidity>=0.8.0;\n\ncontract Votingcon{\n\n//variables\n\nstring[] namelist;\n\n\nstruct voter{\n\naddress voteraddress;\nuint choice;\nbool voted_or_not;\nstring voter_name;\n}\n\n\nstruct candidate{\n\nstring candidate_name;\nuint no_votes;\n}\n\n mapping(uint=>candidate) private candidate_list;\n\nuint private candidate_count=0;\nstring private Winner;\nuint private finalResult=0;\nuint public totalVoters=0;\nuint private totalvotes=0;\n\n\naddress private Organizer_address;\nstring public Organizer_name;\nmapping(address=> voter) private voter_register;\n\nenum State {Created,Voting,Ended}\n\nState public state;\n\n\n\n\n\n//modifiers\n\n\n\n\n//methods\nconstructor(){\n    string memory name=\"uday\";\n    bytes memory check=bytes(name);\n    for(uint i=0;i<check.length;i++){\n        bytes1 ch=check[i];\n        require((ch >= 0x41 && ch <= 0x5A)|| (ch >= 0x61 && ch <= 0x7A),\"enter valid name\");\n\n    }\n\n\n    \n\n    Organizer_address=msg.sender;\n    Organizer_name=name;\n    state=State.Created;\n\n}\n\nfunction start_voting()public{\n\nrequire(msg.sender==Organizer_address,\"Only organizer can start the voting\");    \n    state=State.Voting;\n}\n\nfunction get_status()view public returns(State){\n\nrequire(msg.sender==Organizer_address,\"Only organizer can start the voting\");    \n    \n\n    return state;\n}\n\n\nfunction end_voting()public{\n\nrequire(msg.sender==Organizer_address,\"Only organizer can end the voting\"); \n    state=State.Ended;\n\nfor(uint i=0;i<candidate_count;i++){\n    if(candidate_list[i].no_votes>finalResult){\n        finalResult=candidate_list[i].no_votes;\n        Winner=candidate_list[i].candidate_name;\n    }\n}\n\n\n}\n\n\n\n\n\n\n\n\nfunction addCandidates(string memory name)public {\n\nrequire(state!=State.Voting && state !=State.Ended);    \n\nrequire(msg.sender==Organizer_address,\"only organizer can add the candidates\");\n\nbytes memory check=bytes(name);\n    for(uint i=0;i<check.length;i++){\n        bytes1 ch=check[i];\n        require((ch >= 0x41 && ch <= 0x5A)|| (ch >= 0x61 && ch <= 0x7A),\"enter valid candidate name\");\n\n    }\n\n\n\n\n\n\ncandidate memory c;\nc.candidate_name=name;\nnamelist.push(name);\nc.no_votes=0;\n\ncandidate_list[candidate_count]=c;\ncandidate_count++;\n\n}\n\n\n\n\n\n\n\n\n\n\n\n\n////VOTER SIDE FUNCTIONS\n\n\nfunction get_candidates_list()view public returns(string[] memory){\n\nrequire(candidate_count>0,\"the are no candidates\");\n\nreturn namelist;\n\n}\n\n\n\n\n\n\nfunction register_voter(string memory name)public{\n\nrequire(state!=State.Ended,\"voting process has Ended\");\nrequire(voter_register[msg.sender].voteraddress!=msg.sender,\"already registered\");\n\nvoter memory v;\n v.voteraddress=msg.sender;\n v.voter_name=name;\n v.voted_or_not=false;\n v.choice=0;\n\n voter_register[v.voteraddress]=v;\n\n totalVoters=totalVoters+1;\n\n}\n\n\n \nfunction do_vote(uint c)public{\n\nrequire(state==State.Voting,\"Voting has not started\");\nrequire(c<=candidate_count);    \n\nrequire(bytes(voter_register[msg.sender].voter_name).length!=0 && voter_register[msg.sender].voted_or_not==false,\"you have already voted\");\n\nvoter_register[msg.sender].voted_or_not=true;\nvoter_register[msg.sender].choice=c;\n\ncandidate_list[c].no_votes++;\n\ntotalvotes++;\n\n} \n\n\nfunction get_Result()view public returns(uint,string memory){\n\n    require(state==State.Ended);\n    return (finalResult,Winner);\n}\n\n}",
  "sourcePath": "C:\\Users\\Piyush\\Desktop\\Eth_Voting-noweb3\\server\\contracts\\Votingcon.sol",
  "compiler": {
    "name": "solc",
    "version": "0.8.17+commit.8df45f5f.Emscripten.clang"
  },
  "schemaVersion": "3.4.11",
  "updatedAt": "2023-01-22T14:30:52.391Z",
  "networkType": "ethereum",
  "devdoc": {
    "kind": "dev",
    "methods": {},
    "version": 1
  },
  "userdoc": {
    "kind": "user",
    "methods": {},
    "version": 1
  }
}